:1000000002308A00202A0000E23CF432BD12751052
:100010008A0600000830F8000230F700F70B0E28BF
:100020008711A0112008831687001628172883122D
:10003000A30D0712031C2228201620088316870010
:1000400026288312201220088316870000008312BE
:10005000A0152008831687008312871D2D28F80B12
:100060000C280230F700F70B33288711A011200865
:10007000831687000000831220162008831687004D
:1000800041284228432844288312A01520088316BB
:1000900087008312871D4A28F8014E284F28071A27
:1000A00078148711A0112008831687008312071285
:1000B00020122008831687008312080020162008CB
:1000C000831687000230F700F70B64288312A0150F
:1000D0002008831687006C286D28831207122012CF
:1000E0002008831687000230F700F70B752883126B
:1000F0008711A011200883168700C0308312A30047
:100100000A206030A3000A207D30A3000A20A3014A
:100110000A20201220088316870000008312A015F1
:100120002008831687008312871D94280230F70069
:10013000F70B98289B2800002016200883168700BC
:100140000230F700F70BA22883128A110A12372A0D
:100150000830A4007708A500201620088316870021
:10016000B128B2288312A0152008831687008312B5
:10017000871DB828071A0314071E0310F80D023054
:10018000F700F70BC128A0112008831687008312FF
:100190008711A40BAC282016200883168700D028CE
:1001A000D1288312071225080319DB282012200802
:1001B0008316870083120000A0152008831687008D
:1001C0008312871DE1280230F700F70BE52887111D
:1001D000A011200883168700ED28EE28831207124D
:1001E0002012200883168700831208002608F801D1
:1001F00025020318FE282508F7000A29F701083010
:10020000A700A50DF70D260877020318F700F80DD3
:10021000A70B01290800201620088316870002304A
:10022000F700F70B11298312A01520088316870009
:1002300019291A2983120712201220088316870011
:100240000230F700F70B222983128711A011200832
:1002500083168700C1308312A3000A200130F70003
:10026000A8207808A10021087F3C0318EA29A201F0
:100270002208033C031CEA290130F700A820780873
:10028000A100043003178D0000308F0003100530EB
:100290000313A3000B08A4008B13831603178C17FA
:1002A0000C140000000083120313A41B8B17031807
:1002B000822903170C087F390313A40003170D08C4
:1002C0000313A50003170F080313A60024080C1E30
:1002D00067299900250803178D00031326080317C3
:1002E0008F0003130B08A7008B13831603178C17BB
:1002F0000C140000000083120313A71B8B17A30B21
:100300008229A22903170C0D0E0D7F390313A400B7
:1003100003170D080313A50003170F080313A60006
:1003200024080C1E91299900250803178D0003133A
:10033000260803178F008D0A03198F0A0310031371
:10034000A30B4A292108A3001B30A4002308A50001
:100350006430A600F6207708A30078083030031D2B
:10036000B829A41CC029A419C029241A2030BB29EB
:10037000A41124122414F80778080C1EBD29990032
:100380002308A5000A30A600F6207708A300780805
:100390003030031DD129A419D629241CD629241AAA
:1003A0002030F80778080C1ED32999003030A307B5
:1003B00023080C1ED929990020300C1EDD29990034
:1003C0000A300C1EE12999000D300C1EE529990018
:1003D000A20A382920122008831687000000831201
:1003E000A0152008831687008312871DF529023087
:1003F000F700F70BF929FC290000201620088316C6
:1004000087000230F700F70B032A83128A110A12C1
:10041000382A223084008313000803191D2A05306E
:10042000F800F701F70B122AF80B112A2E30F7000B
:10043000F70B182A1B2A800B0F2A8A110A123D2A51
:1004400003081F398300FF30A0001930831699007C
:10045000A230980090308312980083161F149F14C6
:100460001F159F1107309C00831383125E280B29F0
:100470000430A100FA30A200092AA10B3A2A372A37
:02048000630017
:02400E00733FFE
:00000001FF
;PIC16F877A
;CRC=DB72  CREATED="10-May-23 14:59"
