:1000000000308A00EB2800003708A0003808A10063
:100010003908A2003A08A300BB0123083B020318D9
:10002000182824303B07840083138001BB0A0D2865
:100030008A110A1208293808F80137020318232800
:100040003708F7002F28F7010830B900B70DF70D72
:10005000380877020318F700F80DB90B26280800B6
:100060003C080739F7003C0CF800F80CF80C1F307E
:10007000F80578083E07840083133F188317F801BA
:10008000F80AF70A4428F80DF70B4328BD080319AE
:100090004C28780880044F28F80978088005080063
:1000A00001302302F80038087802243E84008313CC
:1000B000390880002208BC00BD01BF01BE0130200C
:1000C0002208BC00BD01BF018030BE003020BA0153
:1000D00023083A020318C5280F30BB0001303B0744
:1000E0000319C3283B080139013C031D8E28243025
:1000F0003A07840083130008BC0003103B0CBD00CA
:100100003C08F7003D08F80003198A280310F70C93
:10011000F80B8628771C8E2801308F280030003A93
:10012000031D9428003095280130F7002108BC00F9
:100130007708BD00BF01BE0130202108BC00BD0111
:10014000BF018030BE0030203B080139013C031D57
:10015000AB280130AC280030003A031DB128003034
:10016000B2280130F7002008BC007708BD00BF01AD
:10017000BE0130202008BC00BD01BF018030BE00A0
:100180003020BB036E28BA0A68282208BC00013060
:10019000BD00BF01BE0130202208BC00BD01BF016F
:1001A0008030BE0030200800373084008313000800
:1001B0000319E8280530F800F701F70BDD28F80BE4
:1001C000DC282E30F700F70BE328E628800BDA282E
:1001D0008A110A12532903081F39830083161F143A
:1001E0009F141F159F1107309C0083138312A401D5
:1001F000A501A601A701A801A901AA01AB014030F0
:10020000B7004130B8004230B9000330BA000428CA
:100210003F30AC000630AD005B30AE004F30AF0079
:100220006630B0006D30B1007D30B2000730B300F1
:100230007F30B4006F30B500B6013608633C031C54
:1002400055293608B7000A30B8001B202C30770734
:10025000840083130008B7000230B8003708B900E3
:1002600050203608B7000A30B8001B202C30780721
:10027000840083130008B7000130B8003708B900C4
:1002800050203608B7006430B8001B202C307807A7
:10029000840083130008B700B8013708B900502064
:0E02A0006430B700D428B60A1D291C2963005B
:02400E00733FFE
:00000001FF
;PIC16F877A
;CRC=5153  CREATED="07-May-23 01:20"
