:100000000C942B010C945C010C945C010C945C012D
:100010000C945C010C945C010C945C010C945C01EC
:100020000C945C010C945C010C945C010C945C01DC
:100030000C945C010C945C010C945C010C945C01CC
:100040000C945C010C945C010C945C010C945C01BC
:100050000C945C010C945C010C945C010C94E10424
:100060000C945C010C94AB040C9481040C945C0122
:100070000C945C010C945C010C945C010C945C018C
:100080000C945C010C945C010C945C010C945C017C
:100090000C945C010C945C010C945C010C945C016C
:1000A0000C945C010C945C010C945C010C945C015C
:1000B0000C945C010C945C010C945C010C945C014C
:1000C0000C945C010C945C010C945C010C945C013C
:1000D0000C945C010C945C010C945C010C945C012C
:1000E0000C945C010C9458030C94AC010C942F03F9
:1000F0000C9466030C940E020C945C030C943A036B
:100100000C9419030C9444030C9440030C94460281
:100110000C9493020C942B030C949D010C9470018D
:100120000C9437030C946A030C9414030C9460032E
:100130000C9400020C944A030C944E030C942B056F
:100140000C9452030C9436080C94330300000A0BF1
:1001500002090C0D0E080703040100000000000056
:10016000000000000000000000000000000000008F
:10017000000000000000000012111000000000004C
:10018000000000000000000000000000000000006F
:10019000000000002200250028002B002E00310066
:1001A000340002010000050108010B0100002100DC
:1001B000240027002A002D00300033000101000038
:1001C000040107010A0105050505070508080808D7
:1001D000020202020A0A08080404040401010101DF
:1001E00001010101030303030303030304070707DA
:1001F0000C0C0C0C0C0C0C0C02020202060606067F
:10020000060606060B0B0B0B0B0B0B0B010210204B
:10021000200808102040102040800201020108043C
:1002200002010102040810204080804020100804D0
:100230000201800402018040201008040201080429
:10024000020101020408102040800102040810206D
:1002500040802B05360811241FBECFEFD1E2DEBF50
:10026000CDBF00E00CBF12E0A0E0B2E0E0E2F6E1BA
:1002700000E00BBF02C007900D92A633B107D9F77B
:1002800022E0A6E3B2E001C01D92A63EB207E1F76C
:1002900011E0CAE2D1E000E006C021970109802FF9
:1002A000FE010E94CB08C932D10780E00807A9F7F8
:1002B0000E9464050C94FE0A0C9400000895FC0151
:1002C000248135816217730748F4808191810097FA
:1002D00029F0860F971FFC018081089580E0089522
:1002E000AF92BF92CF92DF92EF92FF920F931F9344
:1002F000CF93DF936C017B018B01040F151FEB0182
:100300005E01AE18BF08C017D10759F06991D60138
:10031000ED91FC910190F081E02DC6011995892B9A
:1003200079F7C501DF91CF911F910F91FF90EF9069
:10033000DF90CF90BF90AF900895FC01538D448D16
:10034000252F30E0842F90E0821B930B541710F080
:10035000CF96089501970895FC01918D828D98178D
:1003600061F0A28DAE0FBF2FB11D5D968C91928D65
:100370009F5F9F73928F90E008958FEF9FEF089596
:100380002FB7F89480913B0290913C02A0913D02DE
:10039000B0913E022FBF8093470290934802A093F2
:1003A0004902B0934A028FE392E00E94AC0197FFAA
:1003B00026C02FB7F89480913B0290913C02A09107
:1003C0003D02B0913E022FBF40914702509148023A
:1003D0006091490270914A02841B950BA60BB70BE2
:1003E000409143025091440260914502709146024F
:1003F00084179507A607B707B0F28FEF9FEF089510
:10040000FC01918D828D981731F0828DE80FF11DDE
:10041000858D90E008958FEF9FEF0895FC01918DF9
:10042000228D892F90E0805C9F4F821B91098F73F2
:10043000992708958FE392E00E940E0221E0892B14
:1004400009F420E0822F0895FC01A48DA80FB92F94
:10045000B11DA35ABF4F2C91848D90E001968F73EC
:100460009927848FA689B7892C93A089B1898C910B
:10047000837080648C93938D848D981306C002885A
:10048000F389E02D80818F7D80830895EF92FF9224
:100490000F931F93CF93DF93EC0181E0888F9B8DA7
:1004A0008C8D98131AC0E889F989808185FF15C061
:1004B0009FB7F894EE89FF896083E889F989808184
:1004C0008370806480839FBF81E090E0DF91CF9153
:1004D0001F910F91FF90EF900895F62E0B8D10E075
:1004E0000F5F1F4F0F731127E02E8C8D8E110CC0E4
:1004F0000FB607FCFACFE889F989808185FFF5CF2F
:10050000CE010E942402F1CFEB8DEC0FFD2FF11DE7
:10051000E35AFF4FF0829FB7F8940B8FEA89FB896B
:1005200080818062CFCFCF93DF93EC01888D8823C9
:10053000B9F0AA89BB89E889F9898C9185FD03C046
:10054000808186FD0DC00FB607FCF7CF8C9185FF2B
:10055000F2CF808185FFEDCFCE010E942402E9CF4A
:10056000DF91CF91089580E090E0892B29F00E94DF
:100570001A0281110E94000080E090E0892B49F06E
:1005800080E090E0892B29F00E94000081110E94F8
:10059000000080E090E0892B49F080E090E0892B1A
:1005A00029F00E94000081110E94000080E090E08C
:1005B000892B49F080E090E0892B29F00E9400000F
:1005C00081110C9400000895282F30E0F901E45BBC
:1005D000FE4F9491F901E45FFD4F44912A533E4F41
:1005E000F9012491222309F435C0992311F1915086
:1005F0009231F8F4E92FF0E08827EE5FFC4F8F4F3F
:100600000C94CB083303370314032B032F03190374
:100610003A03400344034A034E03520358035C0366
:100620001903600366036A03809180008F778093CB
:100630008000E22FF0E0EE0FFF1FEE56FE4FA59177
:10064000B4918FB7F894EC91611148C040954E2356
:100650004C938FBF0895809180008F7DE8CF80916B
:100660008000877FE4CF84B58F7784BDE2CF84B5E7
:100670008F7DFBCF8091B0008F778093B000D9CF72
:100680008091B0008F7DF9CF809190008F7780931B
:100690009000CFCF809190008F7DF9CF8091900016
:1006A000877FF5CF8091A0008F778093A000C1CF86
:1006B0008091A0008F7DF9CF8091A000877FF5CF3A
:1006C000809120018F7780932001B3CF809120010A
:1006D0008F7DF9CF80912001877FF5CF4E2BB8CF4A
:1006E00090917B00977F90937B00865380648093EA
:1006F0007C0080917A00806480937A0080917A00F7
:1007000086FDFCCF80917800909179000895CF9379
:10071000DF93EC0188819981009711F00E9476099E
:10072000198218821D821C821B821A82DF91CF914E
:100730000895FC0180819181009711F00C94760955
:1007400008950F931F93CF93DF93EC0188819981D4
:10075000009759F02A813B812617370730F081E056
:10076000DF91CF911F910F9108958B016F5F7F4FA4
:100770000E94FF09009759F0998388831B830A839D
:100780002C813D81232B59F7FC011082E8CF80E0BA
:10079000E7CFEF92FF920F931F93CF93DF936115F3
:1007A000710541F480E0DF91CF911F910F91FF908F
:1007B000EF90089541155105B1F07B01EC010C81DA
:1007C0001D81040F151FB8010E94A103882351F356
:1007D000288139818C819D81B701820F931F0E94EE
:1007E000E90A1D830C8381E0DECFCF93DF93EC0118
:1007F000FB0101900020E9F73197AF01461B570B31
:100800000E94C903811103C0CE010E948703CE015B
:10081000DF91CF910895CF93DF93EC01FB014481E9
:100820005581608171810E94C903811103C0CE018D
:100830000E948703CE01DF91CF910895EF92FF923E
:100840000F931F93CF93DF93EC017B018A01BA01D1
:100850000E94A10381110BC0CE010E948703CE012B
:10086000DF91CF911F910F91FF90EF9008951D831D
:100870000C83B701888199810E94E90AF0CFEF9239
:10088000FF920F931F93CF93DF93CDB7DEB7A2975D
:100890000FB6F894DEBF0FBECDBF8C01CB01BA01FD
:1008A000F8011182108213821282158214822AE0CA
:1008B000AE014F5F5F4F7A010E943A08F701019045
:1008C0000020E9F73197AF014E195F09B701C80160
:1008D0000E941E04A2960FB6F894DEBF0FBECDBFD5
:1008E000DF91CF911F910F91FF90EF900895FB0141
:1008F00001900020E9F73197AF01461B570B0C948C
:100900001E041F920F920FB60F9211240BB60F9276
:100910002F933F934F935F936F937F938F939F9307
:10092000AF93BF93EF93FF938FE392E00E94240273
:10093000FF91EF91BF91AF919F918F917F916F91B7
:100940005F914F913F912F910F900BBE0F900FBE73
:100950000F901F9018951F920F920FB60F921124AF
:100960000BB60F922F938F939F93EF93FF93E0918A
:100970004F02F09150028081E0915502F0915602B1
:1009800082FD1DC09081809158028F5F8F732091EE
:100990005902821741F0E0915802F0E0E15CFD4F0E
:1009A000958F80935802FF91EF919F918F912F9196
:1009B0000F900BBE0F900FBE0F901F901895808167
:1009C000F2CF1F920F920FB60F9211242F933F93E5
:1009D0008F939F93AF93BF9380913B0290913C0282
:1009E000A0913D02B0913E0230913A0223E0230FE4
:1009F0002D3758F50196A11DB11D20933A02809321
:100A00003B0290933C02A0933D02B0933E02809142
:100A1000360290913702A0913802B09139020196C6
:100A2000A11DB11D8093360290933702A093380226
:100A3000B0933902BF91AF919F918F913F912F91C8
:100A40000F900FBE0F901F90189526E8230F029667
:100A5000A11DB11DD2CFEFE3F2E01382128288EE26
:100A600093E0A0E0B0E084839583A683B7838AE017
:100A700092E09183808385EC90E09587848784EC75
:100A800090E09787868780EC90E0918B808B81EC5B
:100A900090E0938B828B82EC90E0958B848B86EC3C
:100AA00090E0978B868B118E128E138E148EECED48
:100AB000F2E011821082138212821582148265E3A1
:100AC00072E0CF010C947704CF93DF93CDB7DEB7FC
:100AD000E3970FB6F894DEBF0FBECDBF789484B510
:100AE000826084BD84B5816084BD85B5826085BD2A
:100AF00085B5816085BD80916E00816080936E00B8
:100B000010928100809181008260809381008091A9
:100B1000810081608093810080918000816080935A
:100B200080008091B10084608093B1008091B0001A
:100B300081608093B00080919100826080939100E9
:100B400080919100816080939100809190008160FC
:100B5000809390008091A10082608093A100809199
:100B6000A10081608093A1008091A00081608093AA
:100B7000A000809121018260809321018091210158
:100B80008160809321018091200181608093200108
:100B900080917A00846080937A0080917A008260EC
:100BA00080937A0080917A00816080937A008091AE
:100BB0007A00806880937A001092C100E0914F0221
:100BC000F091500282E08083E0914B02F0914C0260
:100BD0001082E0914D02F0914E028FEC80831092D2
:100BE0005702E0915302F091540286E08083E09135
:100BF0005102F0915202808180618083E091510224
:100C0000F0915202808188608083E0915102F091DE
:100C10005202808180688083E0915102F0915202FB
:100C200080818F7D808385E090E0A0E0B0E08093BC
:100C3000430290934402A0934502B093460226E1FA
:100C400030E0F901E45FFD4F4491F901EA53FE4FB2
:100C50008491882399F090E0880F991FFC01E45556
:100C6000FE4FA591B491FC01EE56FE4F85919491F3
:100C70008FB7F894EC91E42BEC938FBF2F5F3F4F2D
:100C800025323105F1F661E086E10E94E40261E07F
:100C90008BE10E94E40261E082E20E94E4028E01A4
:100CA0000F5F1F4F88248A9453E0952EA12CB12CFE
:100CB0008FE392E00E940E02892B09F484C11A820C
:100CC00019821C821B821E821D8265E372E0C801AC
:100CD0000E9477040E94C00197FD0BC08AA31BA24B
:100CE00041E050E0BE016E5D7F4FC8010E94C90324
:100CF000F1CF8091DC029091DD02009709F468C188
:100D000069817A816115710509F460C14091DE0243
:100D10005091DF022D813E814217530708F456C1DE
:100D20000E94E90A8D819E819093E1028093E00206
:100D30001E821D82C8010E9499031A8219821C8298
:100D40001B821E821D8268E172E0C8010E94770446
:100D50004D815E818091E0029091E10284179507B8
:100D600088F08091DC029091DD02009759F0698152
:100D70007A816115710531F00E94F00AFF24F39425
:100D8000892B09F0F12CC8010E949903FF2009F476
:100D900081C01A8219821C821B821E821D82609170
:100DA000DC027091DD026115710539F04091E002BD
:100DB0005091E102C8010E941E0467E070E0C80182
:100DC0000E945F0190ED980F60E0923018F084333C
:100DD00009F015C18CE10E94E40260E08BE10E9401
:100DE000E40260E081E20E94E40268E070E0C80191
:100DF0000E945F01F82E67E070E0C8010E945F0169
:100E000061E090E3F91260E0855E0E94E4024DE14A
:100E1000F42E60E08F2D0E94E402F394E1E2FE12D2
:100E2000F8CF26E1E22EF12C67E070E0C8010E94C5
:100E30005F01082E000C990B4A9761E08E159F0503
:100E400009F060E08E2D0E94E4028FEFE81AF80AA4
:100E50009BE1E916F10441F782E2E82EF12C69E00A
:100E600070E0C8010E945F01082E000C990B0E97DC
:100E700061E08E159F0509F060E08E2D0E94E4026E
:100E8000EFEFEE1AFE0AF5E2EF16F10441F7C801A2
:100E90000E9499032FB7F89460913B0270913C0235
:100EA00080913D0290913E022FBF1FA61EA619AA57
:100EB00018AA1BAA1AAA2AE0A8010E944908F80148
:100EC00001900020E9F73197AF01401B510BB801A9
:100ED000CE018E960E941E0487E30E94700320E2DA
:100EE0003EE4DC010E94D308A50194010E947B0826
:100EF000BA01A9014051574261097109CE01889692
:100F00000E943F0486E30E94700320EC3DE5DC0173
:100F10000E94D308A50194010E947B08BA01A9018F
:100F2000405E5E4261097109CE0182960E943F04D3
:100F30001A8219821C821B821E821D8260E272E06C
:100F4000C8010E947704BE016E5D7F4FC8010E94F8
:100F50000B0465E272E00E94F50367E272E00E9412
:100F6000F503BE01685D7F4F0E940B0465E272E0ED
:100F70000E94F5036CE272E00E94F503BE01625D1F
:100F80007F4F0E940B04FC01448155816081718177
:100F90008FE392E00E94700142E050E063E372E070
:100FA0008FE392E00E947001C8010E949903CE0174
:100FB00082960E949903CE0188960E949903CE01E1
:100FC0008E960E9499030E94B30272CE0E94760907
:100FD00089819A819093DD028093DC028B819C81D0
:100FE0009093DF028093DE028D819E819093E102D7
:100FF0008093E0021A8219821C821B8299CE8CE1B6
:101000000E94E40260E08BE10E94E40260E081E281
:101010000E94E4023DE1E32EF12C68E070E0C8019B
:101020000E945F01833369F0282F082E000C330BD8
:1010300023513109DD24D3942E153F0519F0823355
:1010400009F0D12C67E070E0C8010E945F019EECBE
:101050009E0D6D2D890F0E94E402FEE1EF16F10452
:1010600009F4DFCE9EE1E92EF12CD7CF8CED92E092
:101070000C949903BB272A3051F4992342F4BDE222
:1010800090958095709561957F4F8F4F9F4F0C94F1
:101090004A08BB27FA01A62F621771058105910541
:1010A000330B30FB66F0AA27660F771F881F991F46
:1010B000AA1FA21710F0A21B63953850A9F7A05DD4
:1010C000AA3308F0A95DA19336F7B111B19310824C
:1010D000CA010C946B08DC01FC01672F7191772326
:1010E000E1F7329704C07C916D9370836291AE17E3
:1010F000BF07C8F30895052E97FB1EF400940E94C5
:10110000920857FD07D00E949A0807FC03D04EF4BE
:101110000C94920850954095309521953F4F4F4F34
:101120005F4F089590958095709561957F4F8F4F93
:101130009F4F0895A1E21A2EAA1BBB1BFD010DC0F3
:10114000AA1FBB1FEE1FFF1FA217B307E407F50777
:1011500020F0A21BB30BE40BF50B661F771F881F53
:10116000991F1A9469F760957095809590959B01E9
:10117000AC01BD01CF010895A29FB001B39FC00192
:10118000A39F700D811D1124911DB29F700D811DB3
:101190001124911D0895EE0FFF1F881F8BBF07902C
:1011A000F691E02D19940E94BC08B7FF0895821BA8
:1011B000930B08950F931F93CF93DF938230910584
:1011C00010F482E090E0E091E402F091E50230E07A
:1011D00020E0B0E0A0E0309799F42115310509F442
:1011E0004AC0281B390B24303105D8F58A819B81F0
:1011F0006115710589F1FB0193838283FE0111C0A2
:10120000408151810281138148175907E0F0481746
:10121000590799F4109761F012960C931297139650
:101220001C933296CF01DF91CF911F910F910895BA
:101230000093E4021093E502F4CF2115310551F03B
:101240004217530738F0A901DB019A01BD01DF0104
:10125000F801C1CFEF01F9CF9093E5028093E4024A
:10126000CDCFFE01E20FF31F8193919322503109FC
:1012700039832883D7CF2091E2023091E302232BD8
:1012800041F420910202309103023093E302209353
:10129000E20220910002309101022115310541F452
:1012A0002DB73EB74091040250910502241B350B27
:1012B000E091E202F091E302E217F307A0F42E1BA3
:1012C0003F0B2817390778F0AC014E5F5F4F2417AA
:1012D000350748F04E0F5F1F5093E3024093E20240
:1012E000819391939FCFF0E0E0E09CCFCF93DF9389
:1012F0000097E9F0FC01329713821282A091E40278
:10130000B091E502ED0130E020E01097A1F42081DA
:101310003181820F931F2091E2023091E30228175E
:10132000390709F061C0F093E302E093E202DF9134
:10133000CF910895EA01CE17DF07E8F54A815B8176
:101340009E0141155105B1F7E901FB83EA834991FB
:101350005991C40FD51FEC17FD0761F4808191816D
:101360000296840F951FE901998388838281938176
:101370009B838A83F0E0E0E012968D919C91139715
:101380000097B9F52D913C911197CD010296820FEE
:10139000931F2091E2023091E3022817390739F6B2
:1013A000309751F51092E5021092E402B093E302F7
:1013B000A093E202BCCFD383C28340815181840FCA
:1013C000951FC817D90761F44E5F5F4F88819981D7
:1013D000480F591F518340838A819B819383828365
:1013E0002115310509F0B0CFF093E502E093E40256
:1013F0009ECFFD01DC01C0CF13821282D7CF4F9266
:101400005F926F927F928F929F92AF92BF92CF9294
:10141000DF92EF92FF920F931F93CF93DF938C0194
:10142000009799F4CB01DF91CF911F910F91FF901D
:10143000EF90DF90CF90BF90AF909F908F907F9074
:101440006F905F904F900C94DA08FC01E60FF71F45
:101450009C0122503109E217F30708F4AEC0D9010C
:10146000CD91DC911197C617D70720F1C530D10572
:1014700078F0CE0104978617970750F0C61BD70B5C
:101480002297C193D1936D937C93CF010E947609EB
:10149000C801DF91CF911F910F91FF90EF90DF90E6
:1014A000CF90BF90AF909F908F907F906F905F9004
:1014B0004F9008955B01AC1ABD0A4C018C0E9D1E25
:1014C000A091E402B091E502512C412CF12CE12CC9
:1014D000109731F58091E2029091E3028815990509
:1014E00009F05CC04616570608F058C0809100020B
:1014F00090910102009741F48DB79EB7409104028C
:1015000050910502841B950BE817F90708F055C0A8
:10151000F093E302E093E202F90171836083B8CFB4
:101520008D919C91119712966C90129713967C90C6
:101530001397A815B90559F56C0142E0C40ED11CEA
:10154000CA14DB0420F1AC014A195B09DA011296D6
:10155000159780F06282738251834083D9016D9325
:101560007C93E114F10471F0D7011396FC93EE9390
:1015700012978ECF22968C0F9D1FF9019183808345
:10158000F301EFCFF093E502E093E40281CF481638
:10159000590608F42C017D01D3019ACFCB010E949A
:1015A000DA087C01009749F0AE01B8010E94E00A18
:1015B000C8010E94760987016BCF10E000E068CF78
:1015C000FB01DC0102C001900D9241505040D8F760
:1015D0000895FB01DC0101900D920020E1F70895D0
:1015E000FB01DC014150504030F08D910190801999
:1015F00019F40020B9F7881B990B089511E0CAE28D
:10160000D1E000E006C0802FFE010E94CB082196A9
:10161000011DCB32D10780E00807A9F7F894FFCF6E
:101620000000E602800000000000460270019D01FB
:1016300093020E02AC0100026F75747075743A006B
:101640004368313A0020004368323A0074696D659E
:06165000723A000D0A00D1
:00000001FF
